{
  "contractName": "NPTELCompletionRegistry",
  "abi": [
    {
      "constant": true,
      "inputs": [
        {
          "name": "",
          "type": "uint256"
        }
      ],
      "name": "completions",
      "outputs": [
        {
          "name": "user",
          "type": "address"
        },
        {
          "name": "courseName",
          "type": "string"
        },
        {
          "name": "institution",
          "type": "string"
        },
        {
          "name": "completionDate",
          "type": "uint256"
        }
      ],
      "payable": false,
      "stateMutability": "view",
      "type": "function",
      "signature": "0x77eabb40"
    },
    {
      "anonymous": false,
      "inputs": [
        {
          "indexed": true,
          "name": "user",
          "type": "address"
        },
        {
          "indexed": false,
          "name": "courseName",
          "type": "string"
        },
        {
          "indexed": false,
          "name": "institution",
          "type": "string"
        },
        {
          "indexed": false,
          "name": "completionDate",
          "type": "uint256"
        }
      ],
      "name": "CourseCompleted",
      "type": "event",
      "signature": "0x161683f4aa7659be0da2a1b5977cedcdfdbb99a0670eee225aaae5033b10cd9a"
    },
    {
      "constant": false,
      "inputs": [
        {
          "name": "_courseName",
          "type": "string"
        },
        {
          "name": "_institution",
          "type": "string"
        }
      ],
      "name": "registerCompletion",
      "outputs": [],
      "payable": false,
      "stateMutability": "nonpayable",
      "type": "function",
      "signature": "0xb6f064e6"
    },
    {
      "constant": true,
      "inputs": [],
      "name": "getTotalCompletions",
      "outputs": [
        {
          "name": "",
          "type": "uint256"
        }
      ],
      "payable": false,
      "stateMutability": "view",
      "type": "function",
      "signature": "0xe4815c48"
    },
    {
      "constant": true,
      "inputs": [
        {
          "name": "_index",
          "type": "uint256"
        }
      ],
      "name": "getCompletion",
      "outputs": [
        {
          "name": "",
          "type": "address"
        },
        {
          "name": "",
          "type": "string"
        },
        {
          "name": "",
          "type": "string"
        },
        {
          "name": "",
          "type": "uint256"
        }
      ],
      "payable": false,
      "stateMutability": "view",
      "type": "function",
      "signature": "0xbb39f56f"
    }
  ],
  "bytecode": "0x608060405234801561001057600080fd5b50610bf2806100206000396000f3fe608060405260043610610062576000357c0100000000000000000000000000000000000000000000000000000000900463ffffffff16806377eabb4014610067578063b6f064e6146101c1578063bb39f56f14610320578063e4815c481461047a575b600080fd5b34801561007357600080fd5b506100a06004803603602081101561008a57600080fd5b81019080803590602001909291905050506104a5565b604051808573ffffffffffffffffffffffffffffffffffffffff1673ffffffffffffffffffffffffffffffffffffffff1681526020018060200180602001848152602001838103835286818151815260200191508051906020019080838360005b8381101561011c578082015181840152602081019050610101565b50505050905090810190601f1680156101495780820380516001836020036101000a031916815260200191505b50838103825285818151815260200191508051906020019080838360005b83811015610182578082015181840152602081019050610167565b50505050905090810190601f1680156101af5780820380516001836020036101000a031916815260200191505b50965050505050505060405180910390f35b3480156101cd57600080fd5b5061031e600480360360408110156101e457600080fd5b810190808035906020019064010000000081111561020157600080fd5b82018360208201111561021357600080fd5b8035906020019184600183028401116401000000008311171561023557600080fd5b91908080601f016020809104026020016040519081016040528093929190818152602001838380828437600081840152601f19601f8201169050808301925050505050505091929192908035906020019064010000000081111561029857600080fd5b8201836020820111156102aa57600080fd5b803590602001918460018302840111640100000000831117156102cc57600080fd5b91908080601f016020809104026020016040519081016040528093929190818152602001838380828437600081840152601f19601f820116905080830192505050505050509192919290505050610634565b005b34801561032c57600080fd5b506103596004803603602081101561034357600080fd5b8101908080359060200190929190505050610853565b604051808573ffffffffffffffffffffffffffffffffffffffff1673ffffffffffffffffffffffffffffffffffffffff1681526020018060200180602001848152602001838103835286818151815260200191508051906020019080838360005b838110156103d55780820151818401526020810190506103ba565b50505050905090810190601f1680156104025780820380516001836020036101000a031916815260200191505b50838103825285818151815260200191508051906020019080838360005b8381101561043b578082015181840152602081019050610420565b50505050905090810190601f1680156104685780820380516001836020036101000a031916815260200191505b50965050505050505060405180910390f35b34801561048657600080fd5b5061048f610ad6565b6040518082815260200191505060405180910390f35b6000818154811015156104b457fe5b90600052602060002090600402016000915090508060000160009054906101000a900473ffffffffffffffffffffffffffffffffffffffff1690806001018054600181600116156101000203166002900480601f0160208091040260200160405190810160405280929190818152602001828054600181600116156101000203166002900480156105865780601f1061055b57610100808354040283529160200191610586565b820191906000526020600020905b81548152906001019060200180831161056957829003601f168201915b505050505090806002018054600181600116156101000203166002900480601f0160208091040260200160405190810160405280929190818152602001828054600181600116156101000203166002900480156106245780601f106105f957610100808354040283529160200191610624565b820191906000526020600020905b81548152906001019060200180831161060757829003601f168201915b5050505050908060030154905084565b60006080604051908101604052803373ffffffffffffffffffffffffffffffffffffffff168152602001848152602001838152602001428152509080600181540180825580915050906001820390600052602060002090600402016000909192909190915060008201518160000160006101000a81548173ffffffffffffffffffffffffffffffffffffffff021916908373ffffffffffffffffffffffffffffffffffffffff16021790555060208201518160010190805190602001906106fc929190610ae2565b506040820151816002019080519060200190610719929190610ae2565b50606082015181600301555050503373ffffffffffffffffffffffffffffffffffffffff167f161683f4aa7659be0da2a1b5977cedcdfdbb99a0670eee225aaae5033b10cd9a838342604051808060200180602001848152602001838103835286818151815260200191508051906020019080838360005b838110156107ac578082015181840152602081019050610791565b50505050905090810190601f1680156107d95780820380516001836020036101000a031916815260200191505b50838103825285818151815260200191508051906020019080838360005b838110156108125780820151818401526020810190506107f7565b50505050905090810190601f16801561083f5780820380516001836020036101000a031916815260200191505b509550505050505060405180910390a25050565b600060608060008080549050851015156108d5576040517f08c379a00000000000000000000000000000000000000000000000000000000081526004018080602001828103825260138152602001807f496e646578206f7574206f6620626f756e64730000000000000000000000000081525060200191505060405180910390fd5b6108dd610b62565b6000868154811015156108ec57fe5b9060005260206000209060040201608060405190810160405290816000820160009054906101000a900473ffffffffffffffffffffffffffffffffffffffff1673ffffffffffffffffffffffffffffffffffffffff1673ffffffffffffffffffffffffffffffffffffffff168152602001600182018054600181600116156101000203166002900480601f0160208091040260200160405190810160405280929190818152602001828054600181600116156101000203166002900480156109f55780601f106109ca576101008083540402835291602001916109f5565b820191906000526020600020905b8154815290600101906020018083116109d857829003601f168201915b50505050508152602001600282018054600181600116156101000203166002900480601f016020809104026020016040519081016040528092919081815260200182805460018160011615610100020316600290048015610a975780601f10610a6c57610100808354040283529160200191610a97565b820191906000526020600020905b815481529060010190602001808311610a7a57829003601f168201915b50505050508152602001600382015481525050905080600001518160200151826040015183606001518292508191509450945094509450509193509193565b60008080549050905090565b828054600181600116156101000203166002900490600052602060002090601f016020900481019282601f10610b2357805160ff1916838001178555610b51565b82800160010185558215610b51579182015b82811115610b50578251825591602001919060010190610b35565b5b509050610b5e9190610ba1565b5090565b608060405190810160405280600073ffffffffffffffffffffffffffffffffffffffff1681526020016060815260200160608152602001600081525090565b610bc391905b80821115610bbf576000816000905550600101610ba7565b5090565b9056fea165627a7a72305820466adde4262a435417e1aecd0d5abce065a8c14b6fea454c89f16a210f6e177e0029",
  "source": "// SPDX-License-Identifier: MIT\npragma solidity ^0.5.0;\n\ncontract NPTELCompletionRegistry {\n    // Define a struct to represent a course completion\n    struct CourseCompletion {\n        address user;\n        string courseName;\n        string institution;\n        uint256 completionDate;\n    }\n\n    // Array to store course completions\n    CourseCompletion[] public completions;\n\n    // Event emitted when a course completion is registered\n    event CourseCompleted(address indexed user, string courseName, string institution, uint256 completionDate);\n\n    // Function to register a course completion\n    function registerCompletion(string memory _courseName, string memory _institution) public {\n        completions.push(CourseCompletion({\n            user: msg.sender,\n            courseName: _courseName,\n            institution: _institution,\n            completionDate: block.timestamp\n        }));\n\n        emit CourseCompleted(msg.sender, _courseName, _institution, block.timestamp);\n    }\n\n    // Function to get the total number of course completions\n    function getTotalCompletions() public view returns (uint256) {\n        return completions.length;\n    }\n\n    // Function to get details of a course completion by index\n    function getCompletion(uint256 _index) public view returns (address, string memory, string memory, uint256) {\n        require(_index < completions.length, \"Index out of bounds\");\n        CourseCompletion memory completion = completions[_index];\n        return (completion.user, completion.courseName, completion.institution, completion.completionDate);\n    }\n}\n",
  "sourcePath": "/Users/trikannad/course-blockchain/contracts/NPTELCompletionRegistry.sol",
  "compiler": {
    "name": "solc",
    "version": "0.5.0+commit.1d4f565a.Emscripten.clang"
  },
  "schemaVersion": "3.0.1",
  "updatedAt": "2024-05-12T06:22:16.717Z",
  "devdoc": {
    "methods": {}
  },
  "userdoc": {
    "methods": {}
  }
}